{
  "_format": "hh-sol-artifact-1",
  "contractName": "GameCharacterNFT",
  "sourceName": "src/contracts/GameCharacterNFT.sol",
  "abi": [
    {
      "inputs": [],
      "stateMutability": "nonpayable",
      "type": "constructor"
    },
    {
      "inputs": [],
      "name": "ERC721EnumerableForbiddenBatchMint",
      "type": "error"
    },
    {
      "inputs": [
        {
          "internalType": "address",
          "name": "sender",
          "type": "address"
        },
        {
          "internalType": "uint256",
          "name": "tokenId",
          "type": "uint256"
        },
        {
          "internalType": "address",
          "name": "owner",
          "type": "address"
        }
      ],
      "name": "ERC721IncorrectOwner",
      "type": "error"
    },
    {
      "inputs": [
        {
          "internalType": "address",
          "name": "operator",
          "type": "address"
        },
        {
          "internalType": "uint256",
          "name": "tokenId",
          "type": "uint256"
        }
      ],
      "name": "ERC721InsufficientApproval",
      "type": "error"
    },
    {
      "inputs": [
        {
          "internalType": "address",
          "name": "approver",
          "type": "address"
        }
      ],
      "name": "ERC721InvalidApprover",
      "type": "error"
    },
    {
      "inputs": [
        {
          "internalType": "address",
          "name": "operator",
          "type": "address"
        }
      ],
      "name": "ERC721InvalidOperator",
      "type": "error"
    },
    {
      "inputs": [
        {
          "internalType": "address",
          "name": "owner",
          "type": "address"
        }
      ],
      "name": "ERC721InvalidOwner",
      "type": "error"
    },
    {
      "inputs": [
        {
          "internalType": "address",
          "name": "receiver",
          "type": "address"
        }
      ],
      "name": "ERC721InvalidReceiver",
      "type": "error"
    },
    {
      "inputs": [
        {
          "internalType": "address",
          "name": "sender",
          "type": "address"
        }
      ],
      "name": "ERC721InvalidSender",
      "type": "error"
    },
    {
      "inputs": [
        {
          "internalType": "uint256",
          "name": "tokenId",
          "type": "uint256"
        }
      ],
      "name": "ERC721NonexistentToken",
      "type": "error"
    },
    {
      "inputs": [
        {
          "internalType": "address",
          "name": "owner",
          "type": "address"
        },
        {
          "internalType": "uint256",
          "name": "index",
          "type": "uint256"
        }
      ],
      "name": "ERC721OutOfBoundsIndex",
      "type": "error"
    },
    {
      "inputs": [
        {
          "internalType": "address",
          "name": "owner",
          "type": "address"
        }
      ],
      "name": "OwnableInvalidOwner",
      "type": "error"
    },
    {
      "inputs": [
        {
          "internalType": "address",
          "name": "account",
          "type": "address"
        }
      ],
      "name": "OwnableUnauthorizedAccount",
      "type": "error"
    },
    {
      "anonymous": false,
      "inputs": [
        {
          "indexed": true,
          "internalType": "address",
          "name": "owner",
          "type": "address"
        },
        {
          "indexed": true,
          "internalType": "address",
          "name": "approved",
          "type": "address"
        },
        {
          "indexed": true,
          "internalType": "uint256",
          "name": "tokenId",
          "type": "uint256"
        }
      ],
      "name": "Approval",
      "type": "event"
    },
    {
      "anonymous": false,
      "inputs": [
        {
          "indexed": true,
          "internalType": "address",
          "name": "owner",
          "type": "address"
        },
        {
          "indexed": true,
          "internalType": "address",
          "name": "operator",
          "type": "address"
        },
        {
          "indexed": false,
          "internalType": "bool",
          "name": "approved",
          "type": "bool"
        }
      ],
      "name": "ApprovalForAll",
      "type": "event"
    },
    {
      "anonymous": false,
      "inputs": [
        {
          "indexed": true,
          "internalType": "address",
          "name": "previousOwner",
          "type": "address"
        },
        {
          "indexed": true,
          "internalType": "address",
          "name": "newOwner",
          "type": "address"
        }
      ],
      "name": "OwnershipTransferred",
      "type": "event"
    },
    {
      "anonymous": false,
      "inputs": [
        {
          "indexed": true,
          "internalType": "address",
          "name": "from",
          "type": "address"
        },
        {
          "indexed": true,
          "internalType": "address",
          "name": "to",
          "type": "address"
        },
        {
          "indexed": true,
          "internalType": "uint256",
          "name": "tokenId",
          "type": "uint256"
        }
      ],
      "name": "Transfer",
      "type": "event"
    },
    {
      "inputs": [
        {
          "internalType": "address",
          "name": "to",
          "type": "address"
        },
        {
          "internalType": "uint256",
          "name": "tokenId",
          "type": "uint256"
        }
      ],
      "name": "approve",
      "outputs": [],
      "stateMutability": "nonpayable",
      "type": "function"
    },
    {
      "inputs": [
        {
          "internalType": "address",
          "name": "owner",
          "type": "address"
        }
      ],
      "name": "balanceOf",
      "outputs": [
        {
          "internalType": "uint256",
          "name": "",
          "type": "uint256"
        }
      ],
      "stateMutability": "view",
      "type": "function"
    },
    {
      "inputs": [
        {
          "internalType": "uint256",
          "name": "tokenId",
          "type": "uint256"
        }
      ],
      "name": "getApproved",
      "outputs": [
        {
          "internalType": "address",
          "name": "",
          "type": "address"
        }
      ],
      "stateMutability": "view",
      "type": "function"
    },
    {
      "inputs": [
        {
          "internalType": "uint256",
          "name": "tokenId",
          "type": "uint256"
        }
      ],
      "name": "getCharacterAttributes",
      "outputs": [
        {
          "components": [
            {
              "internalType": "string",
              "name": "name",
              "type": "string"
            },
            {
              "internalType": "uint256",
              "name": "jumpHeight",
              "type": "uint256"
            },
            {
              "internalType": "uint256",
              "name": "width",
              "type": "uint256"
            },
            {
              "internalType": "uint256",
              "name": "height",
              "type": "uint256"
            },
            {
              "internalType": "string",
              "name": "spriteURI",
              "type": "string"
            }
          ],
          "internalType": "struct GameCharacterNFT.CharacterAttributes",
          "name": "",
          "type": "tuple"
        }
      ],
      "stateMutability": "view",
      "type": "function"
    },
    {
      "inputs": [
        {
          "internalType": "address",
          "name": "owner",
          "type": "address"
        },
        {
          "internalType": "address",
          "name": "operator",
          "type": "address"
        }
      ],
      "name": "isApprovedForAll",
      "outputs": [
        {
          "internalType": "bool",
          "name": "",
          "type": "bool"
        }
      ],
      "stateMutability": "view",
      "type": "function"
    },
    {
      "inputs": [],
      "name": "maxSupply",
      "outputs": [
        {
          "internalType": "uint256",
          "name": "",
          "type": "uint256"
        }
      ],
      "stateMutability": "view",
      "type": "function"
    },
    {
      "inputs": [],
      "name": "mint",
      "outputs": [],
      "stateMutability": "payable",
      "type": "function"
    },
    {
      "inputs": [],
      "name": "mintPrice",
      "outputs": [
        {
          "internalType": "uint256",
          "name": "",
          "type": "uint256"
        }
      ],
      "stateMutability": "view",
      "type": "function"
    },
    {
      "inputs": [],
      "name": "name",
      "outputs": [
        {
          "internalType": "string",
          "name": "",
          "type": "string"
        }
      ],
      "stateMutability": "view",
      "type": "function"
    },
    {
      "inputs": [],
      "name": "owner",
      "outputs": [
        {
          "internalType": "address",
          "name": "",
          "type": "address"
        }
      ],
      "stateMutability": "view",
      "type": "function"
    },
    {
      "inputs": [
        {
          "internalType": "uint256",
          "name": "tokenId",
          "type": "uint256"
        }
      ],
      "name": "ownerOf",
      "outputs": [
        {
          "internalType": "address",
          "name": "",
          "type": "address"
        }
      ],
      "stateMutability": "view",
      "type": "function"
    },
    {
      "inputs": [],
      "name": "renounceOwnership",
      "outputs": [],
      "stateMutability": "nonpayable",
      "type": "function"
    },
    {
      "inputs": [
        {
          "internalType": "address",
          "name": "from",
          "type": "address"
        },
        {
          "internalType": "address",
          "name": "to",
          "type": "address"
        },
        {
          "internalType": "uint256",
          "name": "tokenId",
          "type": "uint256"
        }
      ],
      "name": "safeTransferFrom",
      "outputs": [],
      "stateMutability": "nonpayable",
      "type": "function"
    },
    {
      "inputs": [
        {
          "internalType": "address",
          "name": "from",
          "type": "address"
        },
        {
          "internalType": "address",
          "name": "to",
          "type": "address"
        },
        {
          "internalType": "uint256",
          "name": "tokenId",
          "type": "uint256"
        },
        {
          "internalType": "bytes",
          "name": "data",
          "type": "bytes"
        }
      ],
      "name": "safeTransferFrom",
      "outputs": [],
      "stateMutability": "nonpayable",
      "type": "function"
    },
    {
      "inputs": [
        {
          "internalType": "address",
          "name": "operator",
          "type": "address"
        },
        {
          "internalType": "bool",
          "name": "approved",
          "type": "bool"
        }
      ],
      "name": "setApprovalForAll",
      "outputs": [],
      "stateMutability": "nonpayable",
      "type": "function"
    },
    {
      "inputs": [
        {
          "internalType": "string",
          "name": "baseURI",
          "type": "string"
        }
      ],
      "name": "setBaseURI",
      "outputs": [],
      "stateMutability": "nonpayable",
      "type": "function"
    },
    {
      "inputs": [
        {
          "internalType": "uint256",
          "name": "tokenId",
          "type": "uint256"
        },
        {
          "internalType": "string",
          "name": "name",
          "type": "string"
        },
        {
          "internalType": "uint256",
          "name": "jumpHeight",
          "type": "uint256"
        },
        {
          "internalType": "uint256",
          "name": "width",
          "type": "uint256"
        },
        {
          "internalType": "uint256",
          "name": "height",
          "type": "uint256"
        },
        {
          "internalType": "string",
          "name": "spriteURI",
          "type": "string"
        }
      ],
      "name": "setCharacterAttributes",
      "outputs": [],
      "stateMutability": "nonpayable",
      "type": "function"
    },
    {
      "inputs": [
        {
          "internalType": "uint256",
          "name": "_price",
          "type": "uint256"
        }
      ],
      "name": "setMintPrice",
      "outputs": [],
      "stateMutability": "nonpayable",
      "type": "function"
    },
    {
      "inputs": [
        {
          "internalType": "bytes4",
          "name": "interfaceId",
          "type": "bytes4"
        }
      ],
      "name": "supportsInterface",
      "outputs": [
        {
          "internalType": "bool",
          "name": "",
          "type": "bool"
        }
      ],
      "stateMutability": "view",
      "type": "function"
    },
    {
      "inputs": [],
      "name": "symbol",
      "outputs": [
        {
          "internalType": "string",
          "name": "",
          "type": "string"
        }
      ],
      "stateMutability": "view",
      "type": "function"
    },
    {
      "inputs": [
        {
          "internalType": "uint256",
          "name": "index",
          "type": "uint256"
        }
      ],
      "name": "tokenByIndex",
      "outputs": [
        {
          "internalType": "uint256",
          "name": "",
          "type": "uint256"
        }
      ],
      "stateMutability": "view",
      "type": "function"
    },
    {
      "inputs": [
        {
          "internalType": "address",
          "name": "owner",
          "type": "address"
        },
        {
          "internalType": "uint256",
          "name": "index",
          "type": "uint256"
        }
      ],
      "name": "tokenOfOwnerByIndex",
      "outputs": [
        {
          "internalType": "uint256",
          "name": "",
          "type": "uint256"
        }
      ],
      "stateMutability": "view",
      "type": "function"
    },
    {
      "inputs": [
        {
          "internalType": "uint256",
          "name": "tokenId",
          "type": "uint256"
        }
      ],
      "name": "tokenURI",
      "outputs": [
        {
          "internalType": "string",
          "name": "",
          "type": "string"
        }
      ],
      "stateMutability": "view",
      "type": "function"
    },
    {
      "inputs": [],
      "name": "totalSupply",
      "outputs": [
        {
          "internalType": "uint256",
          "name": "",
          "type": "uint256"
        }
      ],
      "stateMutability": "view",
      "type": "function"
    },
    {
      "inputs": [
        {
          "internalType": "address",
          "name": "from",
          "type": "address"
        },
        {
          "internalType": "address",
          "name": "to",
          "type": "address"
        },
        {
          "internalType": "uint256",
          "name": "tokenId",
          "type": "uint256"
        }
      ],
      "name": "transferFrom",
      "outputs": [],
      "stateMutability": "nonpayable",
      "type": "function"
    },
    {
      "inputs": [
        {
          "internalType": "address",
          "name": "newOwner",
          "type": "address"
        }
      ],
      "name": "transferOwnership",
      "outputs": [],
      "stateMutability": "nonpayable",
      "type": "function"
    },
    {
      "inputs": [],
      "name": "withdraw",
      "outputs": [],
      "stateMutability": "nonpayable",
      "type": "function"
    }
  ],
  "bytecode": "0x6080604052662386f26fc10000600d556103e8600e553480156200002257600080fd5b50336040518060400160405280600d81526020017f47616d65436861726163746572000000000000000000000000000000000000008152506040518060400160405280600581526020017f47434841520000000000000000000000000000000000000000000000000000008152508160009081620000a1919062000483565b508060019081620000b3919062000483565b505050600073ffffffffffffffffffffffffffffffffffffffff168173ffffffffffffffffffffffffffffffffffffffff16036200012b5760006040517f1e4fbdf7000000000000000000000000000000000000000000000000000000008152600401620001229190620005af565b60405180910390fd5b6200013c816200014360201b60201c565b50620005cc565b6000600a60009054906101000a900473ffffffffffffffffffffffffffffffffffffffff16905081600a60006101000a81548173ffffffffffffffffffffffffffffffffffffffff021916908373ffffffffffffffffffffffffffffffffffffffff1602179055508173ffffffffffffffffffffffffffffffffffffffff168173ffffffffffffffffffffffffffffffffffffffff167f8be0079c531659141344cd1fd0a4f28419497f9722a3daafe3b4186f6b6457e060405160405180910390a35050565b600081519050919050565b7f4e487b7100000000000000000000000000000000000000000000000000000000600052604160045260246000fd5b7f4e487b7100000000000000000000000000000000000000000000000000000000600052602260045260246000fd5b600060028204905060018216806200028b57607f821691505b602082108103620002a157620002a062000243565b5b50919050565b60008190508160005260206000209050919050565b60006020601f8301049050919050565b600082821b905092915050565b6000600883026200030b7fffffffffffffffffffffffffffffffffffffffffffffffffffffffffffffffff82620002cc565b620003178683620002cc565b95508019841693508086168417925050509392505050565b6000819050919050565b6000819050919050565b6000620003646200035e62000358846200032f565b62000339565b6200032f565b9050919050565b6000819050919050565b620003808362000343565b620003986200038f826200036b565b848454620002d9565b825550505050565b600090565b620003af620003a0565b620003bc81848462000375565b505050565b5b81811015620003e457620003d8600082620003a5565b600181019050620003c2565b5050565b601f8211156200043357620003fd81620002a7565b6200040884620002bc565b8101602085101562000418578190505b620004306200042785620002bc565b830182620003c1565b50505b505050565b600082821c905092915050565b6000620004586000198460080262000438565b1980831691505092915050565b600062000473838362000445565b9150826002028217905092915050565b6200048e8262000209565b67ffffffffffffffff811115620004aa57620004a962000214565b5b620004b6825462000272565b620004c3828285620003e8565b600060209050601f831160018114620004fb5760008415620004e6578287015190505b620004f2858262000465565b86555062000562565b601f1984166200050b86620002a7565b60005b8281101562000535578489015182556001820191506020850194506020810190506200050e565b8683101562000555578489015162000551601f89168262000445565b8355505b6001600288020188555050505b505050505050565b600073ffffffffffffffffffffffffffffffffffffffff82169050919050565b600062000597826200056a565b9050919050565b620005a9816200058a565b82525050565b6000602082019050620005c660008301846200059e565b92915050565b61354280620005dc6000396000f3fe60806040526004361061019c5760003560e01c80636817c76c116100ec578063b88d4fde1161008a578063d5abeb0111610064578063d5abeb01146105b7578063e985e9c5146105e2578063f2fde38b1461061f578063f4a0a528146106485761019c565b8063b88d4fde14610514578063c87b56dd1461053d578063d0e60cff1461057a5761019c565b8063715018a6116100c6578063715018a61461047e5780638da5cb5b1461049557806395d89b41146104c0578063a22cb465146104eb5761019c565b80636817c76c146103ed57806368dd1f401461041857806370a08231146104415761019c565b806323b872dd1161015957806342842e0e1161013357806342842e0e146103215780634f6ccce71461034a57806355f804b3146103875780636352211e146103b05761019c565b806323b872dd146102a45780632f745c59146102cd5780633ccfd60b1461030a5761019c565b806301ffc9a7146101a157806306fdde03146101de578063081812fc14610209578063095ea7b3146102465780631249c58b1461026f57806318160ddd14610279575b600080fd5b3480156101ad57600080fd5b506101c860048036038101906101c3919061262e565b610671565b6040516101d59190612676565b60405180910390f35b3480156101ea57600080fd5b506101f3610683565b6040516102009190612721565b60405180910390f35b34801561021557600080fd5b50610230600480360381019061022b9190612779565b610715565b60405161023d91906127e7565b60405180910390f35b34801561025257600080fd5b5061026d6004803603810190610268919061282e565b610731565b005b610277610747565b005b34801561028557600080fd5b5061028e6107fc565b60405161029b919061287d565b60405180910390f35b3480156102b057600080fd5b506102cb60048036038101906102c69190612898565b610809565b005b3480156102d957600080fd5b506102f460048036038101906102ef919061282e565b61090b565b604051610301919061287d565b60405180910390f35b34801561031657600080fd5b5061031f6109b4565b005b34801561032d57600080fd5b5061034860048036038101906103439190612898565b610a12565b005b34801561035657600080fd5b50610371600480360381019061036c9190612779565b610a32565b60405161037e919061287d565b60405180910390f35b34801561039357600080fd5b506103ae60048036038101906103a99190612a20565b610aa8565b005b3480156103bc57600080fd5b506103d760048036038101906103d29190612779565b610ac3565b6040516103e491906127e7565b60405180910390f35b3480156103f957600080fd5b50610402610ad5565b60405161040f919061287d565b60405180910390f35b34801561042457600080fd5b5061043f600480360381019061043a9190612a69565b610adb565b005b34801561044d57600080fd5b5061046860048036038101906104639190612b2e565b610be9565b604051610475919061287d565b60405180910390f35b34801561048a57600080fd5b50610493610ca3565b005b3480156104a157600080fd5b506104aa610cb7565b6040516104b791906127e7565b60405180910390f35b3480156104cc57600080fd5b506104d5610ce1565b6040516104e29190612721565b60405180910390f35b3480156104f757600080fd5b50610512600480360381019061050d9190612b87565b610d73565b005b34801561052057600080fd5b5061053b60048036038101906105369190612c68565b610d89565b005b34801561054957600080fd5b50610564600480360381019061055f9190612779565b610dae565b6040516105719190612721565b60405180910390f35b34801561058657600080fd5b506105a1600480360381019061059c9190612779565b610e17565b6040516105ae9190612dc1565b60405180910390f35b3480156105c357600080fd5b506105cc610ffd565b6040516105d9919061287d565b60405180910390f35b3480156105ee57600080fd5b5061060960048036038101906106049190612de3565b611003565b6040516106169190612676565b60405180910390f35b34801561062b57600080fd5b5061064660048036038101906106419190612b2e565b611097565b005b34801561065457600080fd5b5061066f600480360381019061066a9190612779565b61111d565b005b600061067c8261112f565b9050919050565b60606000805461069290612e52565b80601f01602080910402602001604051908101604052809291908181526020018280546106be90612e52565b801561070b5780601f106106e05761010080835404028352916020019161070b565b820191906000526020600020905b8154815290600101906020018083116106ee57829003601f168201915b5050505050905090565b6000610720826111a9565b5061072a82611231565b9050919050565b610743828261073e61126e565b611276565b5050565b600d5434101561078c576040517f08c379a000000000000000000000000000000000000000000000000000000000815260040161078390612ecf565b60405180910390fd5b600e546107976107fc565b106107d7576040517f08c379a00000000000000000000000000000000000000000000000000000000081526004016107ce90612f3b565b60405180910390fd5b600060016107e36107fc565b6107ed9190612f8a565b90506107f93382611288565b50565b6000600880549050905090565b600073ffffffffffffffffffffffffffffffffffffffff168273ffffffffffffffffffffffffffffffffffffffff160361087b5760006040517f64a0ae9200000000000000000000000000000000000000000000000000000000815260040161087291906127e7565b60405180910390fd5b600061088f838361088a61126e565b6112a6565b90508373ffffffffffffffffffffffffffffffffffffffff168173ffffffffffffffffffffffffffffffffffffffff1614610905578382826040517f64283d7b0000000000000000000000000000000000000000000000000000000081526004016108fc93929190612fbe565b60405180910390fd5b50505050565b600061091683610be9565b821061095b5782826040517fa57d13dc000000000000000000000000000000000000000000000000000000008152600401610952929190612ff5565b60405180910390fd5b600660008473ffffffffffffffffffffffffffffffffffffffff1673ffffffffffffffffffffffffffffffffffffffff168152602001908152602001600020600083815260200190815260200160002054905092915050565b6109bc6112bc565b60004790506109c9610cb7565b73ffffffffffffffffffffffffffffffffffffffff166108fc829081150290604051600060405180830381858888f19350505050158015610a0e573d6000803e3d6000fd5b5050565b610a2d83838360405180602001604052806000815250610d89565b505050565b6000610a3c6107fc565b8210610a82576000826040517fa57d13dc000000000000000000000000000000000000000000000000000000008152600401610a79929190612ff5565b60405180910390fd5b60088281548110610a9657610a9561301e565b5b90600052602060002001549050919050565b610ab06112bc565b80600c9081610abf91906131f9565b5050565b6000610ace826111a9565b9050919050565b600d5481565b610ae36112bc565b600073ffffffffffffffffffffffffffffffffffffffff16610b0487610ac3565b73ffffffffffffffffffffffffffffffffffffffff1603610b5a576040517f08c379a0000000000000000000000000000000000000000000000000000000008152600401610b5190613317565b60405180910390fd5b6040518060a0016040528086815260200185815260200184815260200183815260200182815250600b60008881526020019081526020016000206000820151816000019081610ba991906131f9565b506020820151816001015560408201518160020155606082015181600301556080820151816004019081610bdd91906131f9565b50905050505050505050565b60008073ffffffffffffffffffffffffffffffffffffffff168273ffffffffffffffffffffffffffffffffffffffff1603610c5c5760006040517f89c62b64000000000000000000000000000000000000000000000000000000008152600401610c5391906127e7565b60405180910390fd5b600360008373ffffffffffffffffffffffffffffffffffffffff1673ffffffffffffffffffffffffffffffffffffffff168152602001908152602001600020549050919050565b610cab6112bc565b610cb56000611343565b565b6000600a60009054906101000a900473ffffffffffffffffffffffffffffffffffffffff16905090565b606060018054610cf090612e52565b80601f0160208091040260200160405190810160405280929190818152602001828054610d1c90612e52565b8015610d695780601f10610d3e57610100808354040283529160200191610d69565b820191906000526020600020905b815481529060010190602001808311610d4c57829003601f168201915b5050505050905090565b610d85610d7e61126e565b8383611409565b5050565b610d94848484610809565b610da8610d9f61126e565b85858585611578565b50505050565b6060610db9826111a9565b506000610dc4611729565b90506000815111610de45760405180602001604052806000815250610e0f565b80610dee846117bb565b604051602001610dff929190613373565b6040516020818303038152906040525b915050919050565b610e1f612593565b600073ffffffffffffffffffffffffffffffffffffffff16610e4083610ac3565b73ffffffffffffffffffffffffffffffffffffffff1603610e96576040517f08c379a0000000000000000000000000000000000000000000000000000000008152600401610e8d90613317565b60405180910390fd5b600b60008381526020019081526020016000206040518060a0016040529081600082018054610ec490612e52565b80601f0160208091040260200160405190810160405280929190818152602001828054610ef090612e52565b8015610f3d5780601f10610f1257610100808354040283529160200191610f3d565b820191906000526020600020905b815481529060010190602001808311610f2057829003601f168201915b50505050508152602001600182015481526020016002820154815260200160038201548152602001600482018054610f7490612e52565b80601f0160208091040260200160405190810160405280929190818152602001828054610fa090612e52565b8015610fed5780601f10610fc257610100808354040283529160200191610fed565b820191906000526020600020905b815481529060010190602001808311610fd057829003601f168201915b5050505050815250509050919050565b600e5481565b6000600560008473ffffffffffffffffffffffffffffffffffffffff1673ffffffffffffffffffffffffffffffffffffffff16815260200190815260200160002060008373ffffffffffffffffffffffffffffffffffffffff1673ffffffffffffffffffffffffffffffffffffffff16815260200190815260200160002060009054906101000a900460ff16905092915050565b61109f6112bc565b600073ffffffffffffffffffffffffffffffffffffffff168173ffffffffffffffffffffffffffffffffffffffff16036111115760006040517f1e4fbdf700000000000000000000000000000000000000000000000000000000815260040161110891906127e7565b60405180910390fd5b61111a81611343565b50565b6111256112bc565b80600d8190555050565b60007f780e9d63000000000000000000000000000000000000000000000000000000007bffffffffffffffffffffffffffffffffffffffffffffffffffffffff1916827bffffffffffffffffffffffffffffffffffffffffffffffffffffffff191614806111a257506111a182611889565b5b9050919050565b6000806111b58361196b565b9050600073ffffffffffffffffffffffffffffffffffffffff168173ffffffffffffffffffffffffffffffffffffffff160361122857826040517f7e27328900000000000000000000000000000000000000000000000000000000815260040161121f919061287d565b60405180910390fd5b80915050919050565b60006004600083815260200190815260200160002060009054906101000a900473ffffffffffffffffffffffffffffffffffffffff169050919050565b600033905090565b61128383838360016119a8565b505050565b6112a2828260405180602001604052806000815250611b6d565b5050565b60006112b3848484611b91565b90509392505050565b6112c461126e565b73ffffffffffffffffffffffffffffffffffffffff166112e2610cb7565b73ffffffffffffffffffffffffffffffffffffffff16146113415761130561126e565b6040517f118cdaa700000000000000000000000000000000000000000000000000000000815260040161133891906127e7565b60405180910390fd5b565b6000600a60009054906101000a900473ffffffffffffffffffffffffffffffffffffffff16905081600a60006101000a81548173ffffffffffffffffffffffffffffffffffffffff021916908373ffffffffffffffffffffffffffffffffffffffff1602179055508173ffffffffffffffffffffffffffffffffffffffff168173ffffffffffffffffffffffffffffffffffffffff167f8be0079c531659141344cd1fd0a4f28419497f9722a3daafe3b4186f6b6457e060405160405180910390a35050565b600073ffffffffffffffffffffffffffffffffffffffff168273ffffffffffffffffffffffffffffffffffffffff160361147a57816040517f5b08ba1800000000000000000000000000000000000000000000000000000000815260040161147191906127e7565b60405180910390fd5b80600560008573ffffffffffffffffffffffffffffffffffffffff1673ffffffffffffffffffffffffffffffffffffffff16815260200190815260200160002060008473ffffffffffffffffffffffffffffffffffffffff1673ffffffffffffffffffffffffffffffffffffffff16815260200190815260200160002060006101000a81548160ff0219169083151502179055508173ffffffffffffffffffffffffffffffffffffffff168373ffffffffffffffffffffffffffffffffffffffff167f17307eab39ab6107e8899845ad3d59bd9653f200f220920489ca2b5937696c318360405161156b9190612676565b60405180910390a3505050565b60008373ffffffffffffffffffffffffffffffffffffffff163b1115611722578273ffffffffffffffffffffffffffffffffffffffff1663150b7a02868685856040518563ffffffff1660e01b81526004016115d794939291906133ec565b6020604051808303816000875af192505050801561161357506040513d601f19601f82011682018060405250810190611610919061344d565b60015b611697573d8060008114611643576040519150601f19603f3d011682016040523d82523d6000602084013e611648565b606091505b50600081510361168f57836040517f64a0ae9200000000000000000000000000000000000000000000000000000000815260040161168691906127e7565b60405180910390fd5b805181602001fd5b63150b7a0260e01b7bffffffffffffffffffffffffffffffffffffffffffffffffffffffff1916817bffffffffffffffffffffffffffffffffffffffffffffffffffffffff19161461172057836040517f64a0ae9200000000000000000000000000000000000000000000000000000000815260040161171791906127e7565b60405180910390fd5b505b5050505050565b6060600c805461173890612e52565b80601f016020809104026020016040519081016040528092919081815260200182805461176490612e52565b80156117b15780601f10611786576101008083540402835291602001916117b1565b820191906000526020600020905b81548152906001019060200180831161179457829003601f168201915b5050505050905090565b6060600060016117ca84611cae565b01905060008167ffffffffffffffff8111156117e9576117e86128f5565b5b6040519080825280601f01601f19166020018201604052801561181b5781602001600182028036833780820191505090505b509050600082602001820190505b60011561187e578080600190039150507f3031323334353637383961626364656600000000000000000000000000000000600a86061a8153600a85816118725761187161347a565b5b04945060008503611829575b819350505050919050565b60007f80ac58cd000000000000000000000000000000000000000000000000000000007bffffffffffffffffffffffffffffffffffffffffffffffffffffffff1916827bffffffffffffffffffffffffffffffffffffffffffffffffffffffff1916148061195457507f5b5e139f000000000000000000000000000000000000000000000000000000007bffffffffffffffffffffffffffffffffffffffffffffffffffffffff1916827bffffffffffffffffffffffffffffffffffffffffffffffffffffffff1916145b80611964575061196382611e01565b5b9050919050565b60006002600083815260200190815260200160002060009054906101000a900473ffffffffffffffffffffffffffffffffffffffff169050919050565b80806119e15750600073ffffffffffffffffffffffffffffffffffffffff168273ffffffffffffffffffffffffffffffffffffffff1614155b15611b155760006119f1846111a9565b9050600073ffffffffffffffffffffffffffffffffffffffff168373ffffffffffffffffffffffffffffffffffffffff1614158015611a5c57508273ffffffffffffffffffffffffffffffffffffffff168173ffffffffffffffffffffffffffffffffffffffff1614155b8015611a6f5750611a6d8184611003565b155b15611ab157826040517fa9fbf51f000000000000000000000000000000000000000000000000000000008152600401611aa891906127e7565b60405180910390fd5b8115611b1357838573ffffffffffffffffffffffffffffffffffffffff168273ffffffffffffffffffffffffffffffffffffffff167f8c5be1e5ebec7d5bd14f71427d1e84f3dd0314c0f7b2291e5b200ac8c7c3b92560405160405180910390a45b505b836004600085815260200190815260200160002060006101000a81548173ffffffffffffffffffffffffffffffffffffffff021916908373ffffffffffffffffffffffffffffffffffffffff16021790555050505050565b611b778383611e6b565b611b8c611b8261126e565b6000858585611578565b505050565b600080611b9f858585611f64565b9050600073ffffffffffffffffffffffffffffffffffffffff168173ffffffffffffffffffffffffffffffffffffffff1603611be357611bde8461217e565b611c22565b8473ffffffffffffffffffffffffffffffffffffffff168173ffffffffffffffffffffffffffffffffffffffff1614611c2157611c2081856121c7565b5b5b600073ffffffffffffffffffffffffffffffffffffffff168573ffffffffffffffffffffffffffffffffffffffff1603611c6457611c5f846122b2565b611ca3565b8473ffffffffffffffffffffffffffffffffffffffff168173ffffffffffffffffffffffffffffffffffffffff1614611ca257611ca18585612383565b5b5b809150509392505050565b600080600090507a184f03e93ff9f4daa797ed6e38ed64bf6a1f0100000000000000008310611d0c577a184f03e93ff9f4daa797ed6e38ed64bf6a1f0100000000000000008381611d0257611d0161347a565b5b0492506040810190505b6d04ee2d6d415b85acef81000000008310611d49576d04ee2d6d415b85acef81000000008381611d3f57611d3e61347a565b5b0492506020810190505b662386f26fc100008310611d7857662386f26fc100008381611d6e57611d6d61347a565b5b0492506010810190505b6305f5e1008310611da1576305f5e1008381611d9757611d9661347a565b5b0492506008810190505b6127108310611dc6576127108381611dbc57611dbb61347a565b5b0492506004810190505b60648310611de95760648381611ddf57611dde61347a565b5b0492506002810190505b600a8310611df8576001810190505b80915050919050565b60007f01ffc9a7000000000000000000000000000000000000000000000000000000007bffffffffffffffffffffffffffffffffffffffffffffffffffffffff1916827bffffffffffffffffffffffffffffffffffffffffffffffffffffffff1916149050919050565b600073ffffffffffffffffffffffffffffffffffffffff168273ffffffffffffffffffffffffffffffffffffffff1603611edd5760006040517f64a0ae92000000000000000000000000000000000000000000000000000000008152600401611ed491906127e7565b60405180910390fd5b6000611eeb838360006112a6565b9050600073ffffffffffffffffffffffffffffffffffffffff168173ffffffffffffffffffffffffffffffffffffffff1614611f5f5760006040517f73c6ac6e000000000000000000000000000000000000000000000000000000008152600401611f5691906127e7565b60405180910390fd5b505050565b600080611f708461196b565b9050600073ffffffffffffffffffffffffffffffffffffffff168373ffffffffffffffffffffffffffffffffffffffff1614611fb257611fb181848661240e565b5b600073ffffffffffffffffffffffffffffffffffffffff168173ffffffffffffffffffffffffffffffffffffffff161461204357611ff46000856000806119a8565b6001600360008373ffffffffffffffffffffffffffffffffffffffff1673ffffffffffffffffffffffffffffffffffffffff168152602001908152602001600020600082825403925050819055505b600073ffffffffffffffffffffffffffffffffffffffff168573ffffffffffffffffffffffffffffffffffffffff16146120c6576001600360008773ffffffffffffffffffffffffffffffffffffffff1673ffffffffffffffffffffffffffffffffffffffff168152602001908152602001600020600082825401925050819055505b846002600086815260200190815260200160002060006101000a81548173ffffffffffffffffffffffffffffffffffffffff021916908373ffffffffffffffffffffffffffffffffffffffff160217905550838573ffffffffffffffffffffffffffffffffffffffff168273ffffffffffffffffffffffffffffffffffffffff167fddf252ad1be2c89b69c2b068fc378daa952ba7f163c4a11628f55a4df523b3ef60405160405180910390a4809150509392505050565b6008805490506009600083815260200190815260200160002081905550600881908060018154018082558091505060019003906000526020600020016000909190919091505550565b60006121d283610be9565b90506000600760008481526020019081526020016000205490506000600660008673ffffffffffffffffffffffffffffffffffffffff1673ffffffffffffffffffffffffffffffffffffffff168152602001908152602001600020905082821461227e5760008160008581526020019081526020016000205490508082600085815260200190815260200160002081905550826007600083815260200190815260200160002081905550505b6007600085815260200190815260200160002060009055806000848152602001908152602001600020600090555050505050565b600060016008805490506122c691906134a9565b90506000600960008481526020019081526020016000205490506000600883815481106122f6576122f561301e565b5b9060005260206000200154905080600883815481106123185761231761301e565b5b906000526020600020018190555081600960008381526020019081526020016000208190555060096000858152602001908152602001600020600090556008805480612367576123666134dd565b5b6001900381819060005260206000200160009055905550505050565b6000600161239084610be9565b61239a91906134a9565b905081600660008573ffffffffffffffffffffffffffffffffffffffff1673ffffffffffffffffffffffffffffffffffffffff168152602001908152602001600020600083815260200190815260200160002081905550806007600084815260200190815260200160002081905550505050565b6124198383836124d2565b6124cd57600073ffffffffffffffffffffffffffffffffffffffff168373ffffffffffffffffffffffffffffffffffffffff160361248e57806040517f7e273289000000000000000000000000000000000000000000000000000000008152600401612485919061287d565b60405180910390fd5b81816040517f177e802f0000000000000000000000000000000000000000000000000000000081526004016124c4929190612ff5565b60405180910390fd5b505050565b60008073ffffffffffffffffffffffffffffffffffffffff168373ffffffffffffffffffffffffffffffffffffffff161415801561258a57508273ffffffffffffffffffffffffffffffffffffffff168473ffffffffffffffffffffffffffffffffffffffff16148061254b575061254a8484611003565b5b8061258957508273ffffffffffffffffffffffffffffffffffffffff1661257183611231565b73ffffffffffffffffffffffffffffffffffffffff16145b5b90509392505050565b6040518060a0016040528060608152602001600081526020016000815260200160008152602001606081525090565b6000604051905090565b600080fd5b600080fd5b60007fffffffff0000000000000000000000000000000000000000000000000000000082169050919050565b61260b816125d6565b811461261657600080fd5b50565b60008135905061262881612602565b92915050565b600060208284031215612644576126436125cc565b5b600061265284828501612619565b91505092915050565b60008115159050919050565b6126708161265b565b82525050565b600060208201905061268b6000830184612667565b92915050565b600081519050919050565b600082825260208201905092915050565b60005b838110156126cb5780820151818401526020810190506126b0565b60008484015250505050565b6000601f19601f8301169050919050565b60006126f382612691565b6126fd818561269c565b935061270d8185602086016126ad565b612716816126d7565b840191505092915050565b6000602082019050818103600083015261273b81846126e8565b905092915050565b6000819050919050565b61275681612743565b811461276157600080fd5b50565b6000813590506127738161274d565b92915050565b60006020828403121561278f5761278e6125cc565b5b600061279d84828501612764565b91505092915050565b600073ffffffffffffffffffffffffffffffffffffffff82169050919050565b60006127d1826127a6565b9050919050565b6127e1816127c6565b82525050565b60006020820190506127fc60008301846127d8565b92915050565b61280b816127c6565b811461281657600080fd5b50565b60008135905061282881612802565b92915050565b60008060408385031215612845576128446125cc565b5b600061285385828601612819565b925050602061286485828601612764565b9150509250929050565b61287781612743565b82525050565b6000602082019050612892600083018461286e565b92915050565b6000806000606084860312156128b1576128b06125cc565b5b60006128bf86828701612819565b93505060206128d086828701612819565b92505060406128e186828701612764565b9150509250925092565b600080fd5b600080fd5b7f4e487b7100000000000000000000000000000000000000000000000000000000600052604160045260246000fd5b61292d826126d7565b810181811067ffffffffffffffff8211171561294c5761294b6128f5565b5b80604052505050565b600061295f6125c2565b905061296b8282612924565b919050565b600067ffffffffffffffff82111561298b5761298a6128f5565b5b612994826126d7565b9050602081019050919050565b82818337600083830152505050565b60006129c36129be84612970565b612955565b9050828152602081018484840111156129df576129de6128f0565b5b6129ea8482856129a1565b509392505050565b600082601f830112612a0757612a066128eb565b5b8135612a178482602086016129b0565b91505092915050565b600060208284031215612a3657612a356125cc565b5b600082013567ffffffffffffffff811115612a5457612a536125d1565b5b612a60848285016129f2565b91505092915050565b60008060008060008060c08789031215612a8657612a856125cc565b5b6000612a9489828a01612764565b965050602087013567ffffffffffffffff811115612ab557612ab46125d1565b5b612ac189828a016129f2565b9550506040612ad289828a01612764565b9450506060612ae389828a01612764565b9350506080612af489828a01612764565b92505060a087013567ffffffffffffffff811115612b1557612b146125d1565b5b612b2189828a016129f2565b9150509295509295509295565b600060208284031215612b4457612b436125cc565b5b6000612b5284828501612819565b91505092915050565b612b648161265b565b8114612b6f57600080fd5b50565b600081359050612b8181612b5b565b92915050565b60008060408385031215612b9e57612b9d6125cc565b5b6000612bac85828601612819565b9250506020612bbd85828601612b72565b9150509250929050565b600067ffffffffffffffff821115612be257612be16128f5565b5b612beb826126d7565b9050602081019050919050565b6000612c0b612c0684612bc7565b612955565b905082815260208101848484011115612c2757612c266128f0565b5b612c328482856129a1565b509392505050565b600082601f830112612c4f57612c4e6128eb565b5b8135612c5f848260208601612bf8565b91505092915050565b60008060008060808587031215612c8257612c816125cc565b5b6000612c9087828801612819565b9450506020612ca187828801612819565b9350506040612cb287828801612764565b925050606085013567ffffffffffffffff811115612cd357612cd26125d1565b5b612cdf87828801612c3a565b91505092959194509250565b600082825260208201905092915050565b6000612d0782612691565b612d118185612ceb565b9350612d218185602086016126ad565b612d2a816126d7565b840191505092915050565b612d3e81612743565b82525050565b600060a0830160008301518482036000860152612d618282612cfc565b9150506020830151612d766020860182612d35565b506040830151612d896040860182612d35565b506060830151612d9c6060860182612d35565b5060808301518482036080860152612db48282612cfc565b9150508091505092915050565b60006020820190508181036000830152612ddb8184612d44565b905092915050565b60008060408385031215612dfa57612df96125cc565b5b6000612e0885828601612819565b9250506020612e1985828601612819565b9150509250929050565b7f4e487b7100000000000000000000000000000000000000000000000000000000600052602260045260246000fd5b60006002820490506001821680612e6a57607f821691505b602082108103612e7d57612e7c612e23565b5b50919050565b7f496e73756666696369656e74207061796d656e74000000000000000000000000600082015250565b6000612eb960148361269c565b9150612ec482612e83565b602082019050919050565b60006020820190508181036000830152612ee881612eac565b9050919050565b7f4d617820737570706c7920726561636865640000000000000000000000000000600082015250565b6000612f2560128361269c565b9150612f3082612eef565b602082019050919050565b60006020820190508181036000830152612f5481612f18565b9050919050565b7f4e487b7100000000000000000000000000000000000000000000000000000000600052601160045260246000fd5b6000612f9582612743565b9150612fa083612743565b9250828201905080821115612fb857612fb7612f5b565b5b92915050565b6000606082019050612fd360008301866127d8565b612fe0602083018561286e565b612fed60408301846127d8565b949350505050565b600060408201905061300a60008301856127d8565b613017602083018461286e565b9392505050565b7f4e487b7100000000000000000000000000000000000000000000000000000000600052603260045260246000fd5b60008190508160005260206000209050919050565b60006020601f8301049050919050565b600082821b905092915050565b6000600883026130af7fffffffffffffffffffffffffffffffffffffffffffffffffffffffffffffffff82613072565b6130b98683613072565b95508019841693508086168417925050509392505050565b6000819050919050565b60006130f66130f16130ec84612743565b6130d1565b612743565b9050919050565b6000819050919050565b613110836130db565b61312461311c826130fd565b84845461307f565b825550505050565b600090565b61313961312c565b613144818484613107565b505050565b5b818110156131685761315d600082613131565b60018101905061314a565b5050565b601f8211156131ad5761317e8161304d565b61318784613062565b81016020851015613196578190505b6131aa6131a285613062565b830182613149565b50505b505050565b600082821c905092915050565b60006131d0600019846008026131b2565b1980831691505092915050565b60006131e983836131bf565b9150826002028217905092915050565b61320282612691565b67ffffffffffffffff81111561321b5761321a6128f5565b5b6132258254612e52565b61323082828561316c565b600060209050601f8311600181146132635760008415613251578287015190505b61325b85826131dd565b8655506132c3565b601f1984166132718661304d565b60005b8281101561329957848901518255600182019150602085019450602081019050613274565b868310156132b657848901516132b2601f8916826131bf565b8355505b6001600288020188555050505b505050505050565b7f546f6b656e20646f6573206e6f74206578697374000000000000000000000000600082015250565b600061330160148361269c565b915061330c826132cb565b602082019050919050565b60006020820190508181036000830152613330816132f4565b9050919050565b600081905092915050565b600061334d82612691565b6133578185613337565b93506133678185602086016126ad565b80840191505092915050565b600061337f8285613342565b915061338b8284613342565b91508190509392505050565b600081519050919050565b600082825260208201905092915050565b60006133be82613397565b6133c881856133a2565b93506133d88185602086016126ad565b6133e1816126d7565b840191505092915050565b600060808201905061340160008301876127d8565b61340e60208301866127d8565b61341b604083018561286e565b818103606083015261342d81846133b3565b905095945050505050565b60008151905061344781612602565b92915050565b600060208284031215613463576134626125cc565b5b600061347184828501613438565b91505092915050565b7f4e487b7100000000000000000000000000000000000000000000000000000000600052601260045260246000fd5b60006134b482612743565b91506134bf83612743565b92508282039050818111156134d7576134d6612f5b565b5b92915050565b7f4e487b7100000000000000000000000000000000000000000000000000000000600052603160045260246000fdfea26469706673582212205c684814ba9f11b47324164cea92349be094ea004cbd189dece3a34fd772589d64736f6c63430008140033",
  "linkReferences": {},
  "deployedLinkReferences": {}
}